{
  "transactions": [
    {
      "hash": "0x3a87115bd45ef02e2a795c2fa189c424b242f68d2401f1a40c351e3e3533faf6",
      "type": "CREATE",
      "contractName": "EDU",
      "contractAddress": "0x57f8851cb8e1659ec4e6115ac77fa150ebcfb493",
      "tx": {
        "type": "0x02",
        "from": "0x2bfc102290bc92767b290b60fdfeca120058ecd0",
        "gas": "0x129a76",
        "value": "0x0",
        "data": "0x60a06040523480156200001157600080fd5b50604080518082018252600a81526955706c6966742045445560b01b60208083019182528351808501909452600384526245445560e81b9084015281519192916200005f9160009162000082565b5080516200007590600190602084019062000082565b5050336080525062000164565b828054620000909062000128565b90600052602060002090601f016020900481019282620000b45760008555620000ff565b82601f10620000cf57805160ff1916838001178555620000ff565b82800160010185558215620000ff579182015b82811115620000ff578251825591602001919060010190620000e2565b506200010d92915062000111565b5090565b5b808211156200010d576000815560010162000112565b600181811c908216806200013d57607f821691505b6020821081036200015e57634e487b7160e01b600052602260045260246000fd5b50919050565b608051610f1a6200018060003960006106960152610f1a6000f3fe6080604052600436106100e75760003560e01c80636352211e1161008a578063a22cb46511610059578063a22cb4651461027f578063b88d4fde1461029f578063c87b56dd146102bf578063e985e9c5146102df57600080fd5b80636352211e1461021757806370a0823114610237578063755edd171461025757806395d89b411461026a57600080fd5b8063081812fc116100c6578063081812fc14610167578063095ea7b3146101b557806323b872dd146101d757806342842e0e146101f757600080fd5b80629a9b7b146100ec57806301ffc9a71461011557806306fdde0314610145575b600080fd5b3480156100f857600080fd5b5061010260065481565b6040519081526020015b60405180910390f35b34801561012157600080fd5b50610135610130366004610b9e565b61031a565b604051901515815260200161010c565b34801561015157600080fd5b5061015a61036c565b60405161010c9190610bc2565b34801561017357600080fd5b5061019d610182366004610c17565b6004602052600090815260409020546001600160a01b031681565b6040516001600160a01b03909116815260200161010c565b3480156101c157600080fd5b506101d56101d0366004610c47565b6103fa565b005b3480156101e357600080fd5b506101d56101f2366004610c71565b6104e1565b34801561020357600080fd5b506101d5610212366004610c71565b6104fa565b34801561022357600080fd5b5061019d610232366004610c17565b6105cf565b34801561024357600080fd5b50610102610252366004610cad565b610626565b610102610265366004610cad565b610689565b34801561027657600080fd5b5061015a6106f6565b34801561028b57600080fd5b506101d561029a366004610cc8565b610703565b3480156102ab57600080fd5b506101d56102ba366004610d04565b61076f565b3480156102cb57600080fd5b5061015a6102da366004610c17565b610834565b3480156102eb57600080fd5b506101356102fa366004610d9f565b600560209081526000928352604080842090915290825290205460ff1681565b60006301ffc9a760e01b6001600160e01b03198316148061034b57506380ac58cd60e01b6001600160e01b03198316145b806103665750635b5e139f60e01b6001600160e01b03198316145b92915050565b6000805461037990610dd2565b80601f01602080910402602001604051908101604052809291908181526020018280546103a590610dd2565b80156103f25780601f106103c7576101008083540402835291602001916103f2565b820191906000526020600020905b8154815290600101906020018083116103d557829003601f168201915b505050505081565b6000818152600260205260409020546001600160a01b03163381148061044357506001600160a01b038116600090815260056020908152604080832033845290915290205460ff165b6104855760405162461bcd60e51b815260206004820152600e60248201526d1393d517d055551213d49256915160921b60448201526064015b60405180910390fd5b60008281526004602052604080822080546001600160a01b0319166001600160a01b0387811691821790925591518593918516917f8c5be1e5ebec7d5bd14f71427d1e84f3dd0314c0f7b2291e5b200ac8c7c3b92591a4505050565b6040516358b2164f60e11b815260040160405180910390fd5b6105058383836104e1565b6001600160a01b0382163b15806105ae5750604051630a85bd0160e11b8082523360048301526001600160a01b03858116602484015260448301849052608060648401526000608484015290919084169063150b7a029060a4016020604051808303816000875af115801561057e573d6000803e3d6000fd5b505050506040513d601f19601f820116820180604052508101906105a29190610e0c565b6001600160e01b031916145b6105ca5760405162461bcd60e51b815260040161047c90610e29565b505050565b6000818152600260205260409020546001600160a01b0316806106215760405162461bcd60e51b815260206004820152600a6024820152691393d517d3525395115160b21b604482015260640161047c565b919050565b60006001600160a01b03821661066d5760405162461bcd60e51b815260206004820152600c60248201526b5a45524f5f4144445245535360a01b604482015260640161047c565b506001600160a01b031660009081526003602052604090205490565b6000336001600160a01b037f000000000000000000000000000000000000000000000000000000000000000016146106d45760405163be24598360e01b815260040160405180910390fd5b60006006600081546106e590610e53565b91829055509050610366838261083f565b6001805461037990610dd2565b3360008181526005602090815260408083206001600160a01b03871680855290835292819020805460ff191686151590811790915590519081529192917f17307eab39ab6107e8899845ad3d59bd9653f200f220920489ca2b5937696c31910160405180910390a35050565b61077a8585856104e1565b6001600160a01b0384163b15806108115750604051630a85bd0160e11b808252906001600160a01b0386169063150b7a02906107c29033908a90899089908990600401610e7a565b6020604051808303816000875af11580156107e1573d6000803e3d6000fd5b505050506040513d601f19601f820116820180604052508101906108059190610e0c565b6001600160e01b031916145b61082d5760405162461bcd60e51b815260040161047c90610e29565b5050505050565b60606103668261090f565b61084982826109a2565b6001600160a01b0382163b15806108ef5750604051630a85bd0160e11b80825233600483015260006024830181905260448301849052608060648401526084830152906001600160a01b0384169063150b7a029060a4016020604051808303816000875af11580156108bf573d6000803e3d6000fd5b505050506040513d601f19601f820116820180604052508101906108e39190610e0c565b6001600160e01b031916145b61090b5760405162461bcd60e51b815260040161047c90610e29565b5050565b6060600061091c83610aad565b600101905060008167ffffffffffffffff81111561093c5761093c610ece565b6040519080825280601f01601f191660200182016040528015610966576020820181803683370190505b5090508181016020015b600019016f181899199a1a9b1b9c1cb0b131b232b360811b600a86061a8153600a850494508461097057509392505050565b6001600160a01b0382166109ec5760405162461bcd60e51b81526020600482015260116024820152701253959053125117d49150d25412515395607a1b604482015260640161047c565b6000818152600260205260409020546001600160a01b031615610a425760405162461bcd60e51b815260206004820152600e60248201526d1053149150511657d3525395115160921b604482015260640161047c565b6001600160a01b038216600081815260036020908152604080832080546001019055848352600290915280822080546001600160a01b0319168417905551839291907fddf252ad1be2c89b69c2b068fc378daa952ba7f163c4a11628f55a4df523b3ef908290a45050565b60008072184f03e93ff9f4daa797ed6e38ed64bf6a1f0160401b8310610aec5772184f03e93ff9f4daa797ed6e38ed64bf6a1f0160401b830492506040015b6d04ee2d6d415b85acef81000000008310610b18576d04ee2d6d415b85acef8100000000830492506020015b662386f26fc100008310610b3657662386f26fc10000830492506010015b6305f5e1008310610b4e576305f5e100830492506008015b6127108310610b6257612710830492506004015b60648310610b74576064830492506002015b600a83106103665760010192915050565b6001600160e01b031981168114610b9b57600080fd5b50565b600060208284031215610bb057600080fd5b8135610bbb81610b85565b9392505050565b600060208083528351808285015260005b81811015610bef57858101830151858201604001528201610bd3565b81811115610c01576000604083870101525b50601f01601f1916929092016040019392505050565b600060208284031215610c2957600080fd5b5035919050565b80356001600160a01b038116811461062157600080fd5b60008060408385031215610c5a57600080fd5b610c6383610c30565b946020939093013593505050565b600080600060608486031215610c8657600080fd5b610c8f84610c30565b9250610c9d60208501610c30565b9150604084013590509250925092565b600060208284031215610cbf57600080fd5b610bbb82610c30565b60008060408385031215610cdb57600080fd5b610ce483610c30565b915060208301358015158114610cf957600080fd5b809150509250929050565b600080600080600060808688031215610d1c57600080fd5b610d2586610c30565b9450610d3360208701610c30565b935060408601359250606086013567ffffffffffffffff80821115610d5757600080fd5b818801915088601f830112610d6b57600080fd5b813581811115610d7a57600080fd5b896020828501011115610d8c57600080fd5b9699959850939650602001949392505050565b60008060408385031215610db257600080fd5b610dbb83610c30565b9150610dc960208401610c30565b90509250929050565b600181811c90821680610de657607f821691505b602082108103610e0657634e487b7160e01b600052602260045260246000fd5b50919050565b600060208284031215610e1e57600080fd5b8151610bbb81610b85565b60208082526010908201526f155394d0519157d49150d2541251539560821b604082015260600190565b600060018201610e7357634e487b7160e01b600052601160045260246000fd5b5060010190565b6001600160a01b038681168252851660208201526040810184905260806060820181905281018290526000828460a0840137600060a0848401015260a0601f19601f85011683010190509695505050505050565b634e487b7160e01b600052604160045260246000fdfea264697066735822122015625de64344431facb486b86335336b120562019aca44cbf5c1619ba74cc8dd64736f6c634300080d0033",
        "nonce": "0x80",
        "accessList": []
      }
    },
    {
      "hash": "0xb1c510db450c3334a6ecd99ad1bffb8ad6c9a4e8a168b5dbce3bd8b43110f12e",
      "type": "CREATE",
      "contractName": "Uplift",
      "contractAddress": "0x5c291dd034b0ac9f822cdb02c828b2bb08799caf",
      "tx": {
        "type": "0x02",
        "from": "0x2bfc102290bc92767b290b60fdfeca120058ecd0",
        "gas": "0x2f29e1",
        "value": "0x0",
        "data": "0x6080604052600780546001600160a01b031916735d8b4c2554aeb7e86f387b4d6c00ac33499ed01f1790553480156200003757600080fd5b5060405162002a4838038062002a488339810160408190526200005a9162000275565b6040805180820182526006815265155c1b1a599d60d21b6020808301918252835180850190945260048452631312519560e21b908401528151919291620000a491600091620001b6565b508051620000ba906001906020840190620001b6565b5050600a80546001600160a01b0319166001600160a01b03858116919091179091556040805180820182529184168083529051635b69006f60e11b81527fa9214cc96615e0085d3bb077758db69497dc2dce3b2b1e97bc93c3d18d83efd36004820152919250602083019163b6d200de90602401602060405180830381865afa1580156200014c573d6000803e3d6000fd5b505050506040513d601f19601f82011682018060405250810190620001729190620002b4565b6001600160a01b039081169091528151600880546001600160a01b031990811692841692909217905560209092015160098054909316911617905550620003179050565b828054620001c490620002db565b90600052602060002090601f016020900481019282620001e8576000855562000233565b82601f106200020357805160ff191683800117855562000233565b8280016001018555821562000233579182015b828111156200023357825182559160200191906001019062000216565b506200024192915062000245565b5090565b5b8082111562000241576000815560010162000246565b6001600160a01b03811681146200027257600080fd5b50565b600080604083850312156200028957600080fd5b825162000296816200025c565b6020840151909250620002a9816200025c565b809150509250929050565b600060208284031215620002c757600080fd5b8151620002d4816200025c565b9392505050565b600181811c90821680620002f057607f821691505b6020821081036200031157634e487b7160e01b600052602260045260246000fd5b50919050565b61272180620003276000396000f3fe6080604052600436106101805760003560e01c80636352211e116100d1578063c87b56dd1161008a578063e660bb0e11610064578063e660bb0e146104ec578063e985e9c51461050c578063ea3b0ea814610547578063fc05b2e81461056757600080fd5b8063c87b56dd14610458578063d3112b2e14610478578063d6074aba146104bf57600080fd5b80636352211e1461038a57806370a08231146103aa5780638d977672146103ca57806395d89b4114610403578063a22cb46514610418578063b88d4fde1461043857600080fd5b80632036acd21161013e5780632b576f4e116101185780632b576f4e146102fd57806342842e0e1461032a5780634cb88e971461034a5780635ff2bc911461035d57600080fd5b80632036acd21461029057806321f364b6146102bd57806323b872dd146102dd57600080fd5b80629a9b7b1461018557806301ffc9a7146101ae57806306fdde03146101de578063081812fc14610200578063095ea7b31461024e5780631201dfc614610270575b600080fd5b34801561019157600080fd5b5061019b60065481565b6040519081526020015b60405180910390f35b3480156101ba57600080fd5b506101ce6101c9366004611f6e565b610587565b60405190151581526020016101a5565b3480156101ea57600080fd5b506101f36105d9565b6040516101a59190611fea565b34801561020c57600080fd5b5061023661021b366004611ffd565b6004602052600090815260409020546001600160a01b031681565b6040516001600160a01b0390911681526020016101a5565b34801561025a57600080fd5b5061026e61026936600461202d565b610667565b005b34801561027c57600080fd5b5061026e61028b366004611ffd565b61074e565b34801561029c57600080fd5b5061019b6102ab366004612057565b600f6020526000908152604090205481565b3480156102c957600080fd5b5061019b6102d836600461202d565b610b95565b3480156102e957600080fd5b5061026e6102f8366004612072565b610bc6565b34801561030957600080fd5b5061019b610318366004612057565b600d6020526000908152604090205481565b34801561033657600080fd5b5061026e610345366004612072565b610bdf565b61026e6103583660046121bc565b610cb4565b34801561036957600080fd5b5061019b610378366004612057565b600e6020526000908152604090205481565b34801561039657600080fd5b506102366103a5366004611ffd565b610f0e565b3480156103b657600080fd5b5061019b6103c5366004612057565b610f65565b3480156103d657600080fd5b506103ea6103e5366004611ffd565b610fc8565b6040516101a59d9c9b9a999897969594939291906122a1565b34801561040f57600080fd5b506101f361115a565b34801561042457600080fd5b5061026e610433366004612367565b611167565b34801561044457600080fd5b5061026e6104533660046123a3565b6111d3565b34801561046457600080fd5b506101f3610473366004611ffd565b611298565b34801561048457600080fd5b5060085460095461049f916001600160a01b03908116911682565b604080516001600160a01b039384168152929091166020830152016101a5565b3480156104cb57600080fd5b5061019b6104da366004612057565b600c6020526000908152604090205481565b3480156104f857600080fd5b5061026e610507366004612057565b6112a3565b34801561051857600080fd5b506101ce610527366004612412565b600560209081526000928352604080842090915290825290205460ff1681565b34801561055357600080fd5b5061026e610562366004612057565b61138b565b34801561057357600080fd5b5061026e610582366004612445565b6114ee565b60006301ffc9a760e01b6001600160e01b0319831614806105b857506380ac58cd60e01b6001600160e01b03198316145b806105d35750635b5e139f60e01b6001600160e01b03198316145b92915050565b600080546105e690612481565b80601f016020809104026020016040519081016040528092919081815260200182805461061290612481565b801561065f5780601f106106345761010080835404028352916020019161065f565b820191906000526020600020905b81548152906001019060200180831161064257829003601f168201915b505050505081565b6000818152600260205260409020546001600160a01b0316338114806106b057506001600160a01b038116600090815260056020908152604080832033845290915290205460ff165b6106f25760405162461bcd60e51b815260206004820152600e60248201526d1393d517d055551213d49256915160921b60448201526064015b60405180910390fd5b60008281526004602052604080822080546001600160a01b0319166001600160a01b0387811691821790925591518593918516917f8c5be1e5ebec7d5bd14f71427d1e84f3dd0314c0f7b2291e5b200ac8c7c3b92591a4505050565b6000818152600260205260408120546001600160a01b03161515900361078757604051632d14777560e11b815260040160405180910390fd5b6000818152600b6020908152604080832081516101a08101835281546001600160a01b039081168252600183015416938101939093526002810154918301919091526003810154606083015260048101546080830152600581015460a083015260068101805460c0840191906107fc90612481565b80601f016020809104026020016040519081016040528092919081815260200182805461082890612481565b80156108755780601f1061084a57610100808354040283529160200191610875565b820191906000526020600020905b81548152906001019060200180831161085857829003601f168201915b5050505050815260200160078201805461088e90612481565b80601f01602080910402602001604051908101604052809291908181526020018280546108ba90612481565b80156109075780601f106108dc57610100808354040283529160200191610907565b820191906000526020600020905b8154815290600101906020018083116108ea57829003601f168201915b5050509183525050600882015460209091019060ff16600281111561092e5761092e61228b565b600281111561093f5761093f61228b565b815260088201546001600160a01b03610100909104811660208301526009830154166040820152600a8201546060820152600b90910154608090910152905060016000838152600b602052604090206008015460ff1660028111156109a6576109a661228b565b146109c45760405163075802eb60e01b815260040160405180910390fd5b6101408101516001600160a01b031633146109f25760405163be24598360e01b815260040160405180910390fd5b600081608001518260600151610a0891906124d1565b82516001600160a01b03166000908152600c6020526040812080549293508392909190610a369084906124e9565b909155505060608201516101408301516001600160a01b03166000908152600d602052604081208054909190610a6d9084906124d1565b909155505060808201516101208301516001600160a01b03166000908152600d602052604081208054909190610aa49084906124d1565b909155506002905061010083018190525081516001600160a01b039081166000908152600360209081526040808320805460001901905561014086018051851684528184208054600190810190915581518986526002855283862080546001600160a01b031916918816919091179055338552601084528285208054918201815585529284204293019290925590518551915187949182169392909116917fddf252ad1be2c89b69c2b068fc378daa952ba7f163c4a11628f55a4df523b3ef91a460405183907f91dfc924b25cd3a750912075cf0e6bed2235ec6eca305e91b6124d90bf411b2590600090a2505050565b60106020528160005260406000208181548110610bb157600080fd5b90600052602060002001600091509150505481565b6040516358b2164f60e11b815260040160405180910390fd5b610bea838383610bc6565b6001600160a01b0382163b1580610c935750604051630a85bd0160e11b8082523360048301526001600160a01b03858116602484015260448301849052608060648401526000608484015290919084169063150b7a029060a4016020604051808303816000875af1158015610c63573d6000803e3d6000fd5b505050506040513d601f19601f82011682018060405250810190610c879190612500565b6001600160e01b031916145b610caf5760405162461bcd60e51b81526004016106e99061251d565b505050565b86610cbf898b6124d1565b610cc991906124d1565b3414610ce857604051637832e81760e01b815260040160405180910390fd5b604051806101a001604052808c6001600160a01b031681526020018b6001600160a01b031681526020018a815260200189815260200188815260200187815260200183838080601f016020809104026020016040519081016040528093929190818152602001838380828437600092018290525093855250505060208201869052604090910190815260006020808301829052604080840183905260608085018b905260809485018a9052600680548552600b845293829020865181546001600160a01b039182166001600160a01b031991821617835588860151600184018054919093169116179055918601516002830155850151600382015592840151600484015560a0840151600584015560c08401518051610e0e938501929190910190611ebc565b5060e08201518051610e2a916007840191602090910190611ebc565b5061010082015160088201805460ff19166001836002811115610e4f57610e4f61228b565b0217905550610120820151600882018054610100600160a81b0319166101006001600160a01b03938416021790556101408301516009830180546001600160a01b031916918316919091179055610160830151600a83015561018090920151600b909101558a166000908152600d60205260409020899055610ed187896124d1565b6001600160a01b038c166000908152600e6020526040902055600654610ef8908c906118f4565b5050600680546001019055505050505050505050565b6000818152600260205260409020546001600160a01b031680610f605760405162461bcd60e51b815260206004820152600a6024820152691393d517d3525395115160b21b60448201526064016106e9565b919050565b60006001600160a01b038216610fac5760405162461bcd60e51b815260206004820152600c60248201526b5a45524f5f4144445245535360a01b60448201526064016106e9565b506001600160a01b031660009081526003602052604090205490565b600b6020526000908152604090208054600182015460028301546003840154600485015460058601546006870180546001600160a01b03978816989690971696949593949293919261101990612481565b80601f016020809104026020016040519081016040528092919081815260200182805461104590612481565b80156110925780601f1061106757610100808354040283529160200191611092565b820191906000526020600020905b81548152906001019060200180831161107557829003601f168201915b5050505050908060070180546110a790612481565b80601f01602080910402602001604051908101604052809291908181526020018280546110d390612481565b80156111205780601f106110f557610100808354040283529160200191611120565b820191906000526020600020905b81548152906001019060200180831161110357829003601f168201915b50505060088401546009850154600a860154600b90960154949560ff8316956001600160a01b03610100909404841695509190921692508d565b600180546105e690612481565b3360008181526005602090815260408083206001600160a01b03871680855290835292819020805460ff191686151590811790915590519081529192917f17307eab39ab6107e8899845ad3d59bd9653f200f220920489ca2b5937696c31910160405180910390a35050565b6111de858585610bc6565b6001600160a01b0384163b15806112755750604051630a85bd0160e11b808252906001600160a01b0386169063150b7a02906112269033908a90899089908990600401612547565b6020604051808303816000875af1158015611245573d6000803e3d6000fd5b505050506040513d601f19601f820116820180604052508101906112699190612500565b6001600160e01b031916145b6112915760405162461bcd60e51b81526004016106e99061251d565b5050505050565b60606105d3826119c4565b33600090815260106020526040902054600a106112d3576040516305113b2760e41b815260040160405180910390fd5b6001600160a01b038116600090815260106020526040812080546112f990600a906124e9565b815481106113095761130961259b565b9060005260206000200154905062278d004261132591906124e9565b8110156113485760075461134890600890309085906001600160a01b0316611a57565b604051600081526001600160a01b038316907ff107c9a55c1c8c5b73dd9e8516d71363e40fa2cd96b1063039020d13bac996b69060200160405180910390a25050565b600a546040516370a0823160e01b81523360048201526000916001600160a01b0316906370a0823190602401602060405180830381865afa1580156113d4573d6000803e3d6000fd5b505050506040513d601f19601f820116820180604052508101906113f891906125b1565b6001600160a01b038316600090815260106020526040902054909150600a10611434576040516305113b2760e41b815260040160405180910390fd5b6001600160a01b0382166000908152601060205260408120805461145a90600a906124e9565b8154811061146a5761146a61259b565b9060005260206000200154905062278d004261148691906124e9565b8110156114a657604051631827246560e31b815260040160405180910390fd5b60048210156114c85760405163aa70372b60e01b815260040160405180910390fd5b816004036114db576114db6103e8611a7d565b81600503610caf57610caf6109c4611a7d565b6000838152600260205260408120546001600160a01b03161515900361152757604051632d14777560e11b815260040160405180910390fd5b6000838152600b602052604081206008015460ff16600281111561154d5761154d61228b565b1461156b5760405163075802eb60e01b815260040160405180910390fd5b6000838152600b6020908152604080832081516101a08101835281546001600160a01b039081168252600183015416938101939093526002810154918301919091526003810154606083015260048101546080830152600581015460a083015260068101805460c0840191906115e090612481565b80601f016020809104026020016040519081016040528092919081815260200182805461160c90612481565b80156116595780601f1061162e57610100808354040283529160200191611659565b820191906000526020600020905b81548152906001019060200180831161163c57829003601f168201915b5050505050815260200160078201805461167290612481565b80601f016020809104026020016040519081016040528092919081815260200182805461169e90612481565b80156116eb5780601f106116c0576101008083540402835291602001916116eb565b820191906000526020600020905b8154815290600101906020018083116116ce57829003601f168201915b5050509183525050600882015460209091019060ff1660028111156117125761171261228b565b60028111156117235761172361228b565b815260088201546001600160a01b03610100909104811660208301526009830154166040820152600a8201546060820152600b9091015460809091015261016081015190915061177233610f65565b10156117915760405163be24598360e01b815260040160405180910390fd5b610180810151600a546040516370a0823160e01b81523360048201526001600160a01b03909116906370a0823190602401602060405180830381865afa1580156117df573d6000803e3d6000fd5b505050506040513d601f19601f8201168201806040525081019061180391906125b1565b10156118225760405163ab654faf60e01b815260040160405180910390fd5b60008160800151826060015161183891906124d1565b82516001600160a01b03166000908152600e60205260408120805492935083929091906118669084906124e9565b909155505081516001600160a01b03166000908152600c6020526040812080548392906118949084906124d1565b90915550506001600160a01b0383811661014084018190529085166101208401819052600161010085015260405190919087907f3d6f754563e688abf06d08b529d2ee17ef5b7fcc177cd9dc1471a5f5efca69dc90600090a45050505050565b6118fe8282611b2c565b6001600160a01b0382163b15806119a45750604051630a85bd0160e11b80825233600483015260006024830181905260448301849052608060648401526084830152906001600160a01b0384169063150b7a029060a4016020604051808303816000875af1158015611974573d6000803e3d6000fd5b505050506040513d601f19601f820116820180604052508101906119989190612500565b6001600160e01b031916145b6119c05760405162461bcd60e51b81526004016106e99061251d565b5050565b606060006119d183611c37565b600101905060008167ffffffffffffffff8111156119f1576119f16120ae565b6040519080825280601f01601f191660200182016040528015611a1b576020820181803683370190505b5090508181016020015b600019016f181899199a1a9b1b9c1cb0b131b232b360811b600a86061a8153600a8504945084611a2557509392505050565b604080516000815260208101909152611a77908590859085908590611d0f565b50505050565b336000908152600f60205260408120549003611ac457336000818152600f6020526040902060019055600754611abf916008916001600160a01b031684611dee565b611af0565b336000818152600f6020526040902060029055600754611af0916008916001600160a01b031684611e0e565b604051600b82900b815233907ff107c9a55c1c8c5b73dd9e8516d71363e40fa2cd96b1063039020d13bac996b69060200160405180910390a250565b6001600160a01b038216611b765760405162461bcd60e51b81526020600482015260116024820152701253959053125117d49150d25412515395607a1b60448201526064016106e9565b6000818152600260205260409020546001600160a01b031615611bcc5760405162461bcd60e51b815260206004820152600e60248201526d1053149150511657d3525395115160921b60448201526064016106e9565b6001600160a01b038216600081815260036020908152604080832080546001019055848352600290915280822080546001600160a01b0319168417905551839291907fddf252ad1be2c89b69c2b068fc378daa952ba7f163c4a11628f55a4df523b3ef908290a45050565b60008072184f03e93ff9f4daa797ed6e38ed64bf6a1f0160401b8310611c765772184f03e93ff9f4daa797ed6e38ed64bf6a1f0160401b830492506040015b6d04ee2d6d415b85acef81000000008310611ca2576d04ee2d6d415b85acef8100000000830492506020015b662386f26fc100008310611cc057662386f26fc10000830492506010015b6305f5e1008310611cd8576305f5e100830492506008015b6127108310611cec57612710830492506004015b60648310611cfe576064830492506002015b600a83106105d35760010192915050565b845460018601546040805160008152602081019091526001600160a01b03928316926339255d5b921690819063b4b333c690611d549088908b908b90604481016125ca565b60408051808303601f1901815291815260208201805160e094851b6001600160e01b03909116179052519185901b6001600160e01b0319168252611d9f939250908690600401612608565b6000604051808303816000875af1158015611dbe573d6000803e3d6000fd5b505050506040513d6000823e601f3d908101601f19168201604052611de6919081019061263e565b505050505050565b604080516000815260208101909152611a77908590859085908590611e2e565b604080516000815260208101909152611a77908590859085908590611e92565b845460018601546001600160a01b03918216916339255d5b9116806362fc305e87898860005b6040519080825280601f01601f191660200182016040528015611e7e576020820181803683370190505b50604051602401611d5494939291906126b5565b845460018601546001600160a01b03918216916339255d5b9116806350209a628789886000611e54565b828054611ec890612481565b90600052602060002090601f016020900481019282611eea5760008555611f30565b82601f10611f0357805160ff1916838001178555611f30565b82800160010185558215611f30579182015b82811115611f30578251825591602001919060010190611f15565b50611f3c929150611f40565b5090565b5b80821115611f3c5760008155600101611f41565b6001600160e01b031981168114611f6b57600080fd5b50565b600060208284031215611f8057600080fd5b8135611f8b81611f55565b9392505050565b60005b83811015611fad578181015183820152602001611f95565b83811115611a775750506000910152565b60008151808452611fd6816020860160208601611f92565b601f01601f19169290920160200192915050565b602081526000611f8b6020830184611fbe565b60006020828403121561200f57600080fd5b5035919050565b80356001600160a01b0381168114610f6057600080fd5b6000806040838503121561204057600080fd5b61204983612016565b946020939093013593505050565b60006020828403121561206957600080fd5b611f8b82612016565b60008060006060848603121561208757600080fd5b61209084612016565b925061209e60208501612016565b9150604084013590509250925092565b634e487b7160e01b600052604160045260246000fd5b604051601f8201601f1916810167ffffffffffffffff811182821017156120ed576120ed6120ae565b604052919050565b600067ffffffffffffffff82111561210f5761210f6120ae565b50601f01601f191660200190565b600082601f83011261212e57600080fd5b813561214161213c826120f5565b6120c4565b81815284602083860101111561215657600080fd5b816020850160208301376000918101602001919091529392505050565b60008083601f84011261218557600080fd5b50813567ffffffffffffffff81111561219d57600080fd5b6020830191508360208285010111156121b557600080fd5b9250929050565b60008060008060008060008060008060006101408c8e0312156121de57600080fd5b6121e78c612016565b9a506121f560208d01612016565b995060408c0135985060608c0135975060808c0135965060a08c0135955060c08c0135945060e08c0135935067ffffffffffffffff806101008e0135111561223c57600080fd5b61224d8e6101008f01358f0161211d565b9350806101208e0135111561226157600080fd5b506122738d6101208e01358e01612173565b81935080925050509295989b509295989b9093969950565b634e487b7160e01b600052602160045260246000fd5b6001600160a01b038e811682528d166020820152604081018c9052606081018b9052608081018a905260a081018990526101a060c082018190526000906122ea9083018a611fbe565b82810360e08401526122fc818a611fbe565b9150506003871061231d57634e487b7160e01b600052602160045260246000fd5b8661010083015261233a6101208301876001600160a01b03169052565b6001600160a01b03851661014083015261016082019390935261018001529b9a5050505050505050505050565b6000806040838503121561237a57600080fd5b61238383612016565b91506020830135801515811461239857600080fd5b809150509250929050565b6000806000806000608086880312156123bb57600080fd5b6123c486612016565b94506123d260208701612016565b935060408601359250606086013567ffffffffffffffff8111156123f557600080fd5b61240188828901612173565b969995985093965092949392505050565b6000806040838503121561242557600080fd5b61242e83612016565b915061243c60208401612016565b90509250929050565b60008060006060848603121561245a57600080fd5b8335925061246a60208501612016565b915061247860408501612016565b90509250925092565b600181811c9082168061249557607f821691505b6020821081036124b557634e487b7160e01b600052602260045260246000fd5b50919050565b634e487b7160e01b600052601160045260246000fd5b600082198211156124e4576124e46124bb565b500190565b6000828210156124fb576124fb6124bb565b500390565b60006020828403121561251257600080fd5b8151611f8b81611f55565b60208082526010908201526f155394d0519157d49150d2541251539560821b604082015260600190565b6001600160a01b038681168252851660208201526040810184905260806060820181905281018290526000828460a0840137600060a0848401015260a0601f19601f85011683010190509695505050505050565b634e487b7160e01b600052603260045260246000fd5b6000602082840312156125c357600080fd5b5051919050565b6001600160a01b0385811682528481166020830152831660408201526080606082018190526000906125fe90830184611fbe565b9695505050505050565b6001600160a01b038416815260606020820181905260009061262c90830185611fbe565b82810360408401526125fe8185611fbe565b60006020828403121561265057600080fd5b815167ffffffffffffffff81111561266757600080fd5b8201601f8101841361267857600080fd5b805161268661213c826120f5565b81815285602083850101111561269b57600080fd5b6126ac826020830160208601611f92565b95945050505050565b6001600160a01b03858116825284166020820152600b83900b60408201526080606082018190526000906125fe90830184611fbe56fea26469706673582212204e8deeda0db4ef2439c331654d0ccdba75c35e16f579cb78e1b0ace0f4661fe264736f6c634300080d003300000000000000000000000057f8851cb8e1659ec4e6115ac77fa150ebcfb493000000000000000000000000eb796bdb90ffa0f28255275e16936d25d3418603",
        "nonce": "0x81",
        "accessList": []
      }
    },
    {
      "hash": "0x18e41d7047ad39530013384bcae4bc00b2a128ee606b4fcfb7204aa644c2e028",
      "type": "CALL",
      "contractName": "Uplift",
      "contractAddress": "0x5c291dd034b0ac9f822cdb02c828b2bb08799caf",
      "function": "mintTask(address,address,uint256,uint256,uint256,uint256,uint256,uint256,string,string)",
      "arguments": [
        "2bfc102290bc92767b290b60fdfeca120058ecd0",
        "2bfc102290bc92767b290b60fdfeca120058ecd0",
        "0",
        "0",
        "0",
        "6343920c",
        "0",
        "1",
        "thing",
        "https://ctinsvafusekcbpznpfr.supabase.co/storage/v1/object/public/nft-metadata/metadata.json"
      ],
      "tx": {
        "type": "0x02",
        "from": "0x2bfc102290bc92767b290b60fdfeca120058ecd0",
        "to": "0x5c291dd034b0ac9f822cdb02c828b2bb08799caf",
        "gas": "0x63d29",
        "value": "0x0",
        "data": "0x4cb88e970000000000000000000000002bfc102290bc92767b290b60fdfeca120058ecd00000000000000000000000002bfc102290bc92767b290b60fdfeca120058ecd0000000000000000000000000000000000000000000000000000000000000000000000000000000000000000000000000000000000000000000000000000000000000000000000000000000000000000000000000000000000000000000000000000000000000000000000000000000000000000000000000000000006343920c000000000000000000000000000000000000000000000000000000000000000000000000000000000000000000000000000000000000000000000000000000010000000000000000000000000000000000000000000000000000000000000140000000000000000000000000000000000000000000000000000000000000018000000000000000000000000000000000000000000000000000000000000000057468696e67000000000000000000000000000000000000000000000000000000000000000000000000000000000000000000000000000000000000000000005c68747470733a2f2f6374696e737661667573656b6362707a6e7066722e73757061626173652e636f2f73746f726167652f76312f6f626a6563742f7075626c69632f6e66742d6d657461646174612f6d657461646174612e6a736f6e00000000",
        "nonce": "0x82",
        "accessList": []
      }
    },
    {
      "hash": "0xb872d11ad6e85c4a57d6635f5a20d8ce84fcdf7b2e58eda1bebd2424e6ffa98e",
      "type": "CALL",
      "contractName": "Uplift",
      "contractAddress": "0x5c291dd034b0ac9f822cdb02c828b2bb08799caf",
      "function": "mintTask(address,address,uint256,uint256,uint256,uint256,uint256,uint256,string,string)",
      "arguments": [
        "2bfc102290bc92767b290b60fdfeca120058ecd0",
        "2bfc102290bc92767b290b60fdfeca120058ecd0",
        "0",
        "1",
        "0",
        "6344e38c",
        "0",
        "1",
        "thing",
        "https://ctinsvafusekcbpznpfr.supabase.co/storage/v1/object/public/nft-metadata/metadata.json"
      ],
      "tx": {
        "type": "0x02",
        "from": "0x2bfc102290bc92767b290b60fdfeca120058ecd0",
        "to": "0x5c291dd034b0ac9f822cdb02c828b2bb08799caf",
        "gas": "0x659a9",
        "value": "0x1",
        "data": "0x4cb88e970000000000000000000000002bfc102290bc92767b290b60fdfeca120058ecd00000000000000000000000002bfc102290bc92767b290b60fdfeca120058ecd0000000000000000000000000000000000000000000000000000000000000000000000000000000000000000000000000000000000000000000000000000000010000000000000000000000000000000000000000000000000000000000000000000000000000000000000000000000000000000000000000000000006344e38c000000000000000000000000000000000000000000000000000000000000000000000000000000000000000000000000000000000000000000000000000000010000000000000000000000000000000000000000000000000000000000000140000000000000000000000000000000000000000000000000000000000000018000000000000000000000000000000000000000000000000000000000000000057468696e67000000000000000000000000000000000000000000000000000000000000000000000000000000000000000000000000000000000000000000005c68747470733a2f2f6374696e737661667573656b6362707a6e7066722e73757061626173652e636f2f73746f726167652f76312f6f626a6563742f7075626c69632f6e66742d6d657461646174612f6d657461646174612e6a736f6e00000000",
        "nonce": "0x83",
        "accessList": []
      }
    },
    {
      "hash": "0xe6e75eb4b1a0ddf13e1a8d32f6c0ac7b59b594d90a3a7ba2284e147c1876ae97",
      "type": "CALL",
      "contractName": "Uplift",
      "contractAddress": "0x5c291dd034b0ac9f822cdb02c828b2bb08799caf",
      "function": "mintTask(address,address,uint256,uint256,uint256,uint256,uint256,uint256,string,string)",
      "arguments": [
        "2bfc102290bc92767b290b60fdfeca120058ecd0",
        "2bfc102290bc92767b290b60fdfeca120058ecd0",
        "0",
        "2",
        "0",
        "6346350c",
        "0",
        "1",
        "tech thing",
        "https://ctinsvafusekcbpznpfr.supabase.co/storage/v1/object/public/nft-metadata/metadata.json"
      ],
      "tx": {
        "type": "0x02",
        "from": "0x2bfc102290bc92767b290b60fdfeca120058ecd0",
        "to": "0x5c291dd034b0ac9f822cdb02c828b2bb08799caf",
        "gas": "0x60321",
        "value": "0x2",
        "data": "0x4cb88e970000000000000000000000002bfc102290bc92767b290b60fdfeca120058ecd00000000000000000000000002bfc102290bc92767b290b60fdfeca120058ecd0000000000000000000000000000000000000000000000000000000000000000000000000000000000000000000000000000000000000000000000000000000020000000000000000000000000000000000000000000000000000000000000000000000000000000000000000000000000000000000000000000000006346350c0000000000000000000000000000000000000000000000000000000000000000000000000000000000000000000000000000000000000000000000000000000100000000000000000000000000000000000000000000000000000000000001400000000000000000000000000000000000000000000000000000000000000180000000000000000000000000000000000000000000000000000000000000000a74656368207468696e6700000000000000000000000000000000000000000000000000000000000000000000000000000000000000000000000000000000005c68747470733a2f2f6374696e737661667573656b6362707a6e7066722e73757061626173652e636f2f73746f726167652f76312f6f626a6563742f7075626c69632f6e66742d6d657461646174612f6d657461646174612e6a736f6e00000000",
        "nonce": "0x84",
        "accessList": []
      }
    },
    {
      "hash": "0x56b8a46ad0bd76f65583578af38848e87ad87b65d56e43d6623290c035757857",
      "type": "CALL",
      "contractName": "Uplift",
      "contractAddress": "0x5c291dd034b0ac9f822cdb02c828b2bb08799caf",
      "function": "mintTask(address,address,uint256,uint256,uint256,uint256,uint256,uint256,string,string)",
      "arguments": [
        "2bfc102290bc92767b290b60fdfeca120058ecd0",
        "2bfc102290bc92767b290b60fdfeca120058ecd0",
        "0",
        "3",
        "0",
        "6347868c",
        "0",
        "1",
        "translation thing",
        "https://ctinsvafusekcbpznpfr.supabase.co/storage/v1/object/public/nft-metadata/metadata.json"
      ],
      "tx": {
        "type": "0x02",
        "from": "0x2bfc102290bc92767b290b60fdfeca120058ecd0",
        "to": "0x5c291dd034b0ac9f822cdb02c828b2bb08799caf",
        "gas": "0x6038e",
        "value": "0x3",
        "data": "0x4cb88e970000000000000000000000002bfc102290bc92767b290b60fdfeca120058ecd00000000000000000000000002bfc102290bc92767b290b60fdfeca120058ecd0000000000000000000000000000000000000000000000000000000000000000000000000000000000000000000000000000000000000000000000000000000030000000000000000000000000000000000000000000000000000000000000000000000000000000000000000000000000000000000000000000000006347868c000000000000000000000000000000000000000000000000000000000000000000000000000000000000000000000000000000000000000000000000000000010000000000000000000000000000000000000000000000000000000000000140000000000000000000000000000000000000000000000000000000000000018000000000000000000000000000000000000000000000000000000000000000117472616e736c6174696f6e207468696e67000000000000000000000000000000000000000000000000000000000000000000000000000000000000000000005c68747470733a2f2f6374696e737661667573656b6362707a6e7066722e73757061626173652e636f2f73746f726167652f76312f6f626a6563742f7075626c69632f6e66742d6d657461646174612f6d657461646174612e6a736f6e00000000",
        "nonce": "0x85",
        "accessList": []
      }
    },
    {
      "hash": "0x7d6a22664af28f35519223aa0fb034797405f2bc83dec994cd6c9886ea0ff02e",
      "type": "CALL",
      "contractName": "Uplift",
      "contractAddress": "0x5c291dd034b0ac9f822cdb02c828b2bb08799caf",
      "function": "mintTask(address,address,uint256,uint256,uint256,uint256,uint256,uint256,string,string)",
      "arguments": [
        "2bfc102290bc92767b290b60fdfeca120058ecd0",
        "2bfc102290bc92767b290b60fdfeca120058ecd0",
        "0",
        "4",
        "0",
        "6343920c",
        "0",
        "1",
        "big thing?",
        "https://ctinsvafusekcbpznpfr.supabase.co/storage/v1/object/public/nft-metadata/metadata.json"
      ],
      "tx": {
        "type": "0x02",
        "from": "0x2bfc102290bc92767b290b60fdfeca120058ecd0",
        "to": "0x5c291dd034b0ac9f822cdb02c828b2bb08799caf",
        "gas": "0x60321",
        "value": "0x4",
        "data": "0x4cb88e970000000000000000000000002bfc102290bc92767b290b60fdfeca120058ecd00000000000000000000000002bfc102290bc92767b290b60fdfeca120058ecd0000000000000000000000000000000000000000000000000000000000000000000000000000000000000000000000000000000000000000000000000000000040000000000000000000000000000000000000000000000000000000000000000000000000000000000000000000000000000000000000000000000006343920c0000000000000000000000000000000000000000000000000000000000000000000000000000000000000000000000000000000000000000000000000000000100000000000000000000000000000000000000000000000000000000000001400000000000000000000000000000000000000000000000000000000000000180000000000000000000000000000000000000000000000000000000000000000a626967207468696e673f00000000000000000000000000000000000000000000000000000000000000000000000000000000000000000000000000000000005c68747470733a2f2f6374696e737661667573656b6362707a6e7066722e73757061626173652e636f2f73746f726167652f76312f6f626a6563742f7075626c69632f6e66742d6d657461646174612f6d657461646174612e6a736f6e00000000",
        "nonce": "0x86",
        "accessList": []
      }
    }
  ],
  "receipts": [
    {
      "transactionHash": "0x3a87115bd45ef02e2a795c2fa189c424b242f68d2401f1a40c351e3e3533faf6",
      "transactionIndex": "0x15",
      "blockHash": "0x3315b762fa779ebe2a073fcbc13dfcde52184fd4cd6e09c44e59d211a253d3cc",
      "blockNumber": "0x1b33473",
      "from": "0x2bfc102290bc92767b290b60fdfeca120058ecd0",
      "to": null,
      "cumulativeGasUsed": "0x527c47",
      "gasUsed": "0xe4f6f",
      "contractAddress": "0x57f8851cb8e1659ec4e6115ac77fa150ebcfb493",
      "logs": [
        {
          "address": "0x0000000000000000000000000000000000001010",
          "topics": [
            "0x4dfe1bbbcf077ddc3e01291eea2d5c70c2b422b415d95645b9adcfd678cb1d63",
            "0x0000000000000000000000000000000000000000000000000000000000001010",
            "0x0000000000000000000000002bfc102290bc92767b290b60fdfeca120058ecd0",
            "0x000000000000000000000000c26880a0af2ea0c7e8130e6ec47af756465452e8"
          ],
          "data": "0x0000000000000000000000000000000000000000000000000009fee0f95ac200000000000000000000000000000000000000000000000000042e3e9332039b7300000000000000000000000000000000000000000000163c886e2900590ece6d00000000000000000000000000000000000000000000000004243fb238a8d97300000000000000000000000000000000000000000000163c887827e15269906d",
          "blockHash": "0x3315b762fa779ebe2a073fcbc13dfcde52184fd4cd6e09c44e59d211a253d3cc",
          "blockNumber": "0x1b33473",
          "transactionHash": "0x3a87115bd45ef02e2a795c2fa189c424b242f68d2401f1a40c351e3e3533faf6",
          "transactionIndex": "0x15",
          "logIndex": "0xac",
          "removed": false
        }
      ],
      "status": "0x1",
      "logsBloom": "0x00000000000000020000000000000000000000000000000000000000000000000000400000000000000000000000000000008000000000000000000000000000000000000000000000000000000000800000000000000000000100000000000000000000000000000000000000000000000000000000000080000020000000000000000000000000000000000000000000000000000000000000000000000000200000000000000020000000000000000001000000000000000000000000004000000000000000000001000000000000000000000000000000100000000000000000000000000000000000000000000000000000001000000000000000100000",
      "type": "0x2",
      "effectiveGasPrice": "0xd363adac7"
    },
    {
      "transactionHash": "0xb1c510db450c3334a6ecd99ad1bffb8ad6c9a4e8a168b5dbce3bd8b43110f12e",
      "transactionIndex": "0x16",
      "blockHash": "0x3315b762fa779ebe2a073fcbc13dfcde52184fd4cd6e09c44e59d211a253d3cc",
      "blockNumber": "0x1b33473",
      "from": "0x2bfc102290bc92767b290b60fdfeca120058ecd0",
      "to": null,
      "cumulativeGasUsed": "0x76c3e1",
      "gasUsed": "0x24479a",
      "contractAddress": "0x5c291dd034b0ac9f822cdb02c828b2bb08799caf",
      "logs": [
        {
          "address": "0x0000000000000000000000000000000000001010",
          "topics": [
            "0x4dfe1bbbcf077ddc3e01291eea2d5c70c2b422b415d95645b9adcfd678cb1d63",
            "0x0000000000000000000000000000000000000000000000000000000000001010",
            "0x0000000000000000000000002bfc102290bc92767b290b60fdfeca120058ecd0",
            "0x000000000000000000000000c26880a0af2ea0c7e8130e6ec47af756465452e8"
          ],
          "data": "0x00000000000000000000000000000000000000000000000000195750936a8c0000000000000000000000000000000000000000000000000003712de48e19562a00000000000000000000000000000000000000000000163c887827e15269906d0000000000000000000000000000000000000000000000000357d693faaeca2a00000000000000000000000000000000000000000000163c88917f31e5d41c6d",
          "blockHash": "0x3315b762fa779ebe2a073fcbc13dfcde52184fd4cd6e09c44e59d211a253d3cc",
          "blockNumber": "0x1b33473",
          "transactionHash": "0xb1c510db450c3334a6ecd99ad1bffb8ad6c9a4e8a168b5dbce3bd8b43110f12e",
          "transactionIndex": "0x16",
          "logIndex": "0xad",
          "removed": false
        }
      ],
      "status": "0x1",
      "logsBloom": "0x00000000000000020000000000000000000000000000000000000000000000000000400000000000000000000000000000008000000000000000000000000000000000000000000000000000000000800000000000000000000100000000000000000000000000000000000000000000000000000000000080000020000000000000000000000000000000000000000000000000000000000000000000000000200000000000000020000000000000000001000000000000000000000000004000000000000000000001000000000000000000000000000000100000000000000000000000000000000000000000000000000000001000000000000000100000",
      "type": "0x2",
      "effectiveGasPrice": "0xd363adac7"
    },
    {
      "transactionHash": "0x18e41d7047ad39530013384bcae4bc00b2a128ee606b4fcfb7204aa644c2e028",
      "transactionIndex": "0x23",
      "blockHash": "0x45542e3236252f89969b5d04094bf03780211ca31e053929e051155bccbb0160",
      "blockNumber": "0x1b33474",
      "from": "0x2bfc102290bc92767b290b60fdfeca120058ecd0",
      "to": "0x5c291dd034b0ac9f822cdb02c828b2bb08799caf",
      "cumulativeGasUsed": "0x72da03",
      "gasUsed": "0x4cc96",
      "contractAddress": null,
      "logs": [
        {
          "address": "0x5c291dd034b0ac9f822cdb02c828b2bb08799caf",
          "topics": [
            "0xddf252ad1be2c89b69c2b068fc378daa952ba7f163c4a11628f55a4df523b3ef",
            "0x0000000000000000000000000000000000000000000000000000000000000000",
            "0x0000000000000000000000002bfc102290bc92767b290b60fdfeca120058ecd0",
            "0x0000000000000000000000000000000000000000000000000000000000000000"
          ],
          "data": "0x",
          "blockHash": "0x45542e3236252f89969b5d04094bf03780211ca31e053929e051155bccbb0160",
          "blockNumber": "0x1b33474",
          "transactionHash": "0x18e41d7047ad39530013384bcae4bc00b2a128ee606b4fcfb7204aa644c2e028",
          "transactionIndex": "0x23",
          "logIndex": "0xdc",
          "removed": false
        },
        {
          "address": "0x0000000000000000000000000000000000001010",
          "topics": [
            "0x4dfe1bbbcf077ddc3e01291eea2d5c70c2b422b415d95645b9adcfd678cb1d63",
            "0x0000000000000000000000000000000000000000000000000000000000001010",
            "0x0000000000000000000000002bfc102290bc92767b290b60fdfeca120058ecd0",
            "0x000000000000000000000000c26880a0af2ea0c7e8130e6ec47af756465452e8"
          ],
          "data": "0x00000000000000000000000000000000000000000000000000035a2848ff14000000000000000000000000000000000000000000000000000191dba0d808897400000000000000000000000000000000000000000000163c891b0470297f4ef4000000000000000000000000000000000000000000000000018e81788f09757400000000000000000000000000000000000000000000163c891e5e98727e62f4",
          "blockHash": "0x45542e3236252f89969b5d04094bf03780211ca31e053929e051155bccbb0160",
          "blockNumber": "0x1b33474",
          "transactionHash": "0x18e41d7047ad39530013384bcae4bc00b2a128ee606b4fcfb7204aa644c2e028",
          "transactionIndex": "0x23",
          "logIndex": "0xdd",
          "removed": false
        }
      ],
      "status": "0x1",
      "logsBloom": "0x00000000000000020000000000000000000000000000000000000000000000000000400000000000000000000000000000008000000000000000000000000000000000000000000000000008000000800000000000000000000100000000000000000000020000000200000000000800000000000000000080000030000000000000000000000000000000000000000000000000000000000000000000000000200000000000000020000000000000000001000000000000000000000000004000000002000000000001000000000000000000000000000000100000000020000000000000000000004000000000000000000000001000000000000000100000",
      "type": "0x2",
      "effectiveGasPrice": "0xcdee2212c"
    },
    {
      "transactionHash": "0xb872d11ad6e85c4a57d6635f5a20d8ce84fcdf7b2e58eda1bebd2424e6ffa98e",
      "transactionIndex": "0x24",
      "blockHash": "0x45542e3236252f89969b5d04094bf03780211ca31e053929e051155bccbb0160",
      "blockNumber": "0x1b33474",
      "from": "0x2bfc102290bc92767b290b60fdfeca120058ecd0",
      "to": "0x5c291dd034b0ac9f822cdb02c828b2bb08799caf",
      "cumulativeGasUsed": "0x77bc85",
      "gasUsed": "0x4e282",
      "contractAddress": null,
      "logs": [
        {
          "address": "0x0000000000000000000000000000000000001010",
          "topics": [
            "0xe6497e3ee548a3372136af2fcb0696db31fc6cf20260707645068bd3fe97f3c4",
            "0x0000000000000000000000000000000000000000000000000000000000001010",
            "0x0000000000000000000000002bfc102290bc92767b290b60fdfeca120058ecd0",
            "0x0000000000000000000000005c291dd034b0ac9f822cdb02c828b2bb08799caf"
          ],
          "data": "0x000000000000000000000000000000000000000000000000000000000000000100000000000000000000000000000000000000000000000001025ba90091d7a0000000000000000000000000000000000000000000000000000000000000000000000000000000000000000000000000000000000000000001025ba90091d79f0000000000000000000000000000000000000000000000000000000000000001",
          "blockHash": "0x45542e3236252f89969b5d04094bf03780211ca31e053929e051155bccbb0160",
          "blockNumber": "0x1b33474",
          "transactionHash": "0xb872d11ad6e85c4a57d6635f5a20d8ce84fcdf7b2e58eda1bebd2424e6ffa98e",
          "transactionIndex": "0x24",
          "logIndex": "0xde",
          "removed": false
        },
        {
          "address": "0x5c291dd034b0ac9f822cdb02c828b2bb08799caf",
          "topics": [
            "0xddf252ad1be2c89b69c2b068fc378daa952ba7f163c4a11628f55a4df523b3ef",
            "0x0000000000000000000000000000000000000000000000000000000000000000",
            "0x0000000000000000000000002bfc102290bc92767b290b60fdfeca120058ecd0",
            "0x0000000000000000000000000000000000000000000000000000000000000001"
          ],
          "data": "0x",
          "blockHash": "0x45542e3236252f89969b5d04094bf03780211ca31e053929e051155bccbb0160",
          "blockNumber": "0x1b33474",
          "transactionHash": "0xb872d11ad6e85c4a57d6635f5a20d8ce84fcdf7b2e58eda1bebd2424e6ffa98e",
          "transactionIndex": "0x24",
          "logIndex": "0xdf",
          "removed": false
        },
        {
          "address": "0x0000000000000000000000000000000000001010",
          "topics": [
            "0x4dfe1bbbcf077ddc3e01291eea2d5c70c2b422b415d95645b9adcfd678cb1d63",
            "0x0000000000000000000000000000000000000000000000000000000000001010",
            "0x0000000000000000000000002bfc102290bc92767b290b60fdfeca120058ecd0",
            "0x000000000000000000000000c26880a0af2ea0c7e8130e6ec47af756465452e8"
          ],
          "data": "0x0000000000000000000000000000000000000000000000000003697838cbbc00000000000000000000000000000000000000000000000000015416f1886a09ac00000000000000000000000000000000000000000000163c891e5e98727e62f40000000000000000000000000000000000000000000000000150ad794f9e4dac00000000000000000000000000000000000000000000163c8921c810ab4a1ef4",
          "blockHash": "0x45542e3236252f89969b5d04094bf03780211ca31e053929e051155bccbb0160",
          "blockNumber": "0x1b33474",
          "transactionHash": "0xb872d11ad6e85c4a57d6635f5a20d8ce84fcdf7b2e58eda1bebd2424e6ffa98e",
          "transactionIndex": "0x24",
          "logIndex": "0xe0",
          "removed": false
        }
      ],
      "status": "0x1",
      "logsBloom": "0x00000000000000020000000000000000000000000000000000000000000000000000400000000000000000100000000000008000000000000000000000040000000000000000000000000008000000800000000000040000000100000000040000000000020000000200000000000800000000000000000080000030000000000000000000000000000000000000000000000000000000000000000000000000200000000000000020000000000000040001000000000000000000000100004000000002000000000001000000000000000000000000800000108000000060000000000000000000004000000000000000000000001000000000000000100000",
      "type": "0x2",
      "effectiveGasPrice": "0xcdee2212c"
    },
    {
      "transactionHash": "0xe6e75eb4b1a0ddf13e1a8d32f6c0ac7b59b594d90a3a7ba2284e147c1876ae97",
      "transactionIndex": "0x25",
      "blockHash": "0x45542e3236252f89969b5d04094bf03780211ca31e053929e051155bccbb0160",
      "blockNumber": "0x1b33474",
      "from": "0x2bfc102290bc92767b290b60fdfeca120058ecd0",
      "to": "0x5c291dd034b0ac9f822cdb02c828b2bb08799caf",
      "cumulativeGasUsed": "0x7c5c77",
      "gasUsed": "0x49ff2",
      "contractAddress": null,
      "logs": [
        {
          "address": "0x0000000000000000000000000000000000001010",
          "topics": [
            "0xe6497e3ee548a3372136af2fcb0696db31fc6cf20260707645068bd3fe97f3c4",
            "0x0000000000000000000000000000000000000000000000000000000000001010",
            "0x0000000000000000000000002bfc102290bc92767b290b60fdfeca120058ecd0",
            "0x0000000000000000000000005c291dd034b0ac9f822cdb02c828b2bb08799caf"
          ],
          "data": "0x000000000000000000000000000000000000000000000000000000000000000200000000000000000000000000000000000000000000000000c7d68a0b0a8ea7000000000000000000000000000000000000000000000000000000000000000100000000000000000000000000000000000000000000000000c7d68a0b0a8ea50000000000000000000000000000000000000000000000000000000000000003",
          "blockHash": "0x45542e3236252f89969b5d04094bf03780211ca31e053929e051155bccbb0160",
          "blockNumber": "0x1b33474",
          "transactionHash": "0xe6e75eb4b1a0ddf13e1a8d32f6c0ac7b59b594d90a3a7ba2284e147c1876ae97",
          "transactionIndex": "0x25",
          "logIndex": "0xe1",
          "removed": false
        },
        {
          "address": "0x5c291dd034b0ac9f822cdb02c828b2bb08799caf",
          "topics": [
            "0xddf252ad1be2c89b69c2b068fc378daa952ba7f163c4a11628f55a4df523b3ef",
            "0x0000000000000000000000000000000000000000000000000000000000000000",
            "0x0000000000000000000000002bfc102290bc92767b290b60fdfeca120058ecd0",
            "0x0000000000000000000000000000000000000000000000000000000000000002"
          ],
          "data": "0x",
          "blockHash": "0x45542e3236252f89969b5d04094bf03780211ca31e053929e051155bccbb0160",
          "blockNumber": "0x1b33474",
          "transactionHash": "0xe6e75eb4b1a0ddf13e1a8d32f6c0ac7b59b594d90a3a7ba2284e147c1876ae97",
          "transactionIndex": "0x25",
          "logIndex": "0xe2",
          "removed": false
        },
        {
          "address": "0x0000000000000000000000000000000000001010",
          "topics": [
            "0x4dfe1bbbcf077ddc3e01291eea2d5c70c2b422b415d95645b9adcfd678cb1d63",
            "0x0000000000000000000000000000000000000000000000000000000000001010",
            "0x0000000000000000000000002bfc102290bc92767b290b60fdfeca120058ecd0",
            "0x000000000000000000000000c26880a0af2ea0c7e8130e6ec47af756465452e8"
          ],
          "data": "0x00000000000000000000000000000000000000000000000000033af9eb5adc000000000000000000000000000000000000000000000000000115381c339c595300000000000000000000000000000000000000000000163c8921c810ab4a1ef40000000000000000000000000000000000000000000000000111fd2248417d5300000000000000000000000000000000000000000000163c8925030a96a4faf4",
          "blockHash": "0x45542e3236252f89969b5d04094bf03780211ca31e053929e051155bccbb0160",
          "blockNumber": "0x1b33474",
          "transactionHash": "0xe6e75eb4b1a0ddf13e1a8d32f6c0ac7b59b594d90a3a7ba2284e147c1876ae97",
          "transactionIndex": "0x25",
          "logIndex": "0xe3",
          "removed": false
        }
      ],
      "status": "0x1",
      "logsBloom": "0x04000000000000020000000000000000000000000000000000000000000000000000400000000000000000100000000000008000000000000000000000000000000000000000000000000008000000800000000000000000000100000000040000000000020000000200000000000800000000000000000080000030000000000000000000000000000000000000000000000000000000000000000000000000200000000000000020000100000000040001000000000000000000000100004000000002000000000001000000000000000000000000800000108000000020000000000000000000004000000000000000000000009000000000000000100000",
      "type": "0x2",
      "effectiveGasPrice": "0xcdee2212c"
    },
    {
      "transactionHash": "0x56b8a46ad0bd76f65583578af38848e87ad87b65d56e43d6623290c035757857",
      "transactionIndex": "0x26",
      "blockHash": "0x45542e3236252f89969b5d04094bf03780211ca31e053929e051155bccbb0160",
      "blockNumber": "0x1b33474",
      "from": "0x2bfc102290bc92767b290b60fdfeca120058ecd0",
      "to": "0x5c291dd034b0ac9f822cdb02c828b2bb08799caf",
      "cumulativeGasUsed": "0x80fcbd",
      "gasUsed": "0x4a046",
      "contractAddress": null,
      "logs": [
        {
          "address": "0x0000000000000000000000000000000000001010",
          "topics": [
            "0xe6497e3ee548a3372136af2fcb0696db31fc6cf20260707645068bd3fe97f3c4",
            "0x0000000000000000000000000000000000000000000000000000000000001010",
            "0x0000000000000000000000002bfc102290bc92767b290b60fdfeca120058ecd0",
            "0x0000000000000000000000005c291dd034b0ac9f822cdb02c828b2bb08799caf"
          ],
          "data": "0x0000000000000000000000000000000000000000000000000000000000000003000000000000000000000000000000000000000000000000008c4aed7bb4bf510000000000000000000000000000000000000000000000000000000000000003000000000000000000000000000000000000000000000000008c4aed7bb4bf4e0000000000000000000000000000000000000000000000000000000000000006",
          "blockHash": "0x45542e3236252f89969b5d04094bf03780211ca31e053929e051155bccbb0160",
          "blockNumber": "0x1b33474",
          "transactionHash": "0x56b8a46ad0bd76f65583578af38848e87ad87b65d56e43d6623290c035757857",
          "transactionIndex": "0x26",
          "logIndex": "0xe4",
          "removed": false
        },
        {
          "address": "0x5c291dd034b0ac9f822cdb02c828b2bb08799caf",
          "topics": [
            "0xddf252ad1be2c89b69c2b068fc378daa952ba7f163c4a11628f55a4df523b3ef",
            "0x0000000000000000000000000000000000000000000000000000000000000000",
            "0x0000000000000000000000002bfc102290bc92767b290b60fdfeca120058ecd0",
            "0x0000000000000000000000000000000000000000000000000000000000000003"
          ],
          "data": "0x",
          "blockHash": "0x45542e3236252f89969b5d04094bf03780211ca31e053929e051155bccbb0160",
          "blockNumber": "0x1b33474",
          "transactionHash": "0x56b8a46ad0bd76f65583578af38848e87ad87b65d56e43d6623290c035757857",
          "transactionIndex": "0x26",
          "logIndex": "0xe5",
          "removed": false
        },
        {
          "address": "0x0000000000000000000000000000000000001010",
          "topics": [
            "0x4dfe1bbbcf077ddc3e01291eea2d5c70c2b422b415d95645b9adcfd678cb1d63",
            "0x0000000000000000000000000000000000000000000000000000000000001010",
            "0x0000000000000000000000002bfc102290bc92767b290b60fdfeca120058ecd0",
            "0x000000000000000000000000c26880a0af2ea0c7e8130e6ec47af756465452e8"
          ],
          "data": "0x00000000000000000000000000000000000000000000000000033b3497b9b40000000000000000000000000000000000000000000000000000d9b1fa8a8ea9b900000000000000000000000000000000000000000000163c8925030a96a4faf400000000000000000000000000000000000000000000000000d676c5f2d4f5b900000000000000000000000000000000000000000000163c89283e3f2e5eaef4",
          "blockHash": "0x45542e3236252f89969b5d04094bf03780211ca31e053929e051155bccbb0160",
          "blockNumber": "0x1b33474",
          "transactionHash": "0x56b8a46ad0bd76f65583578af38848e87ad87b65d56e43d6623290c035757857",
          "transactionIndex": "0x26",
          "logIndex": "0xe6",
          "removed": false
        }
      ],
      "status": "0x1",
      "logsBloom": "0x00000000000000020000000000000000000000000000000000000000000000000000400000000000000000100000000000008000020000000000000000000000000000000000000000000008000000800000000000000000000100000000040000000000020000000200000000000800000000000000000080000030000000000000000000000000000000000000000000000000000000000000000000000000200000000000000020000000000000040001000000800000000000000100404000000002000000000001000000000000000000000000800000108000000020000000000000000000004000000000000000000000001000000000000000100000",
      "type": "0x2",
      "effectiveGasPrice": "0xcdee2212c"
    },
    {
      "transactionHash": "0x7d6a22664af28f35519223aa0fb034797405f2bc83dec994cd6c9886ea0ff02e",
      "transactionIndex": "0x27",
      "blockHash": "0x45542e3236252f89969b5d04094bf03780211ca31e053929e051155bccbb0160",
      "blockNumber": "0x1b33474",
      "from": "0x2bfc102290bc92767b290b60fdfeca120058ecd0",
      "to": "0x5c291dd034b0ac9f822cdb02c828b2bb08799caf",
      "cumulativeGasUsed": "0x859caf",
      "gasUsed": "0x49ff2",
      "contractAddress": null,
      "logs": [
        {
          "address": "0x0000000000000000000000000000000000001010",
          "topics": [
            "0xe6497e3ee548a3372136af2fcb0696db31fc6cf20260707645068bd3fe97f3c4",
            "0x0000000000000000000000000000000000000000000000000000000000001010",
            "0x0000000000000000000000002bfc102290bc92767b290b60fdfeca120058ecd0",
            "0x0000000000000000000000005c291dd034b0ac9f822cdb02c828b2bb08799caf"
          ],
          "data": "0x00000000000000000000000000000000000000000000000000000000000000040000000000000000000000000000000000000000000000000050c60d96bc4d0200000000000000000000000000000000000000000000000000000000000000060000000000000000000000000000000000000000000000000050c60d96bc4cfe000000000000000000000000000000000000000000000000000000000000000a",
          "blockHash": "0x45542e3236252f89969b5d04094bf03780211ca31e053929e051155bccbb0160",
          "blockNumber": "0x1b33474",
          "transactionHash": "0x7d6a22664af28f35519223aa0fb034797405f2bc83dec994cd6c9886ea0ff02e",
          "transactionIndex": "0x27",
          "logIndex": "0xe7",
          "removed": false
        },
        {
          "address": "0x5c291dd034b0ac9f822cdb02c828b2bb08799caf",
          "topics": [
            "0xddf252ad1be2c89b69c2b068fc378daa952ba7f163c4a11628f55a4df523b3ef",
            "0x0000000000000000000000000000000000000000000000000000000000000000",
            "0x0000000000000000000000002bfc102290bc92767b290b60fdfeca120058ecd0",
            "0x0000000000000000000000000000000000000000000000000000000000000004"
          ],
          "data": "0x",
          "blockHash": "0x45542e3236252f89969b5d04094bf03780211ca31e053929e051155bccbb0160",
          "blockNumber": "0x1b33474",
          "transactionHash": "0x7d6a22664af28f35519223aa0fb034797405f2bc83dec994cd6c9886ea0ff02e",
          "transactionIndex": "0x27",
          "logIndex": "0xe8",
          "removed": false
        },
        {
          "address": "0x0000000000000000000000000000000000001010",
          "topics": [
            "0x4dfe1bbbcf077ddc3e01291eea2d5c70c2b422b415d95645b9adcfd678cb1d63",
            "0x0000000000000000000000000000000000000000000000000000000000001010",
            "0x0000000000000000000000002bfc102290bc92767b290b60fdfeca120058ecd0",
            "0x000000000000000000000000c26880a0af2ea0c7e8130e6ec47af756465452e8"
          ],
          "data": "0x00000000000000000000000000000000000000000000000000033af9eb5adc00000000000000000000000000000000000000000000000000009e279fbf4e17ae00000000000000000000000000000000000000000000163c89283e3f2e5eaef4000000000000000000000000000000000000000000000000009aeca5d3f33bae00000000000000000000000000000000000000000000163c892b793919b98af4",
          "blockHash": "0x45542e3236252f89969b5d04094bf03780211ca31e053929e051155bccbb0160",
          "blockNumber": "0x1b33474",
          "transactionHash": "0x7d6a22664af28f35519223aa0fb034797405f2bc83dec994cd6c9886ea0ff02e",
          "transactionIndex": "0x27",
          "logIndex": "0xe9",
          "removed": false
        }
      ],
      "status": "0x1",
      "logsBloom": "0x00000000000000020000000000000000000000000000000000000000000000000000400000000000000000100000000000008000000000000000000000000000000000000000000000000008000000800000000000000000000100000000040008000000020000000200000000000800000000000000000080000030000000000000000000000000000000000000000000000000000000000000000000000000200000000000000020000000000000040001000000000000002000000100004000000002000000000001000000000000000000008000800000108000000020000000000000000000004000000000000000000000001000000000000000100000",
      "type": "0x2",
      "effectiveGasPrice": "0xcdee2212c"
    }
  ],
  "libraries": [],
  "pending": [],
  "path": "broadcast/Contract.s.sol/80001/run-latest.json",
  "returns": {},
  "timestamp": 1665286326
}